{
  "transactions": [
    {
      "hash": "0x1de53f17305a0707283f4b5d121be12fc958a3100aba6f69e1c0d527ebc1f5fe",
      "transactionType": "CREATE",
      "contractName": "DevOpsTools",
      "contractAddress": "0x3a0c591fa9d063c71C68223196CB4f70264B5744",
      "function": null,
      "arguments": null,
      "transaction": {
        "type": "0x02",
        "from": "0x449dabbfeb5aabc3a9477c02f47933b19250d72a",
        "gas": "0xebb5f",
        "data": "0x610c7861003a600b82828239805160001a60731461002d57634e487b7160e01b600052600060045260246000fd5b30600052607381538281f3fe730000000000000000000000000000000000000000301460806040526004361061006c5760003560e01c806326dceeb7146100715780632aa1c696146100ae5780633a768463146100e5578063a6066fa514610100578063d76ca83d14610108578063e374cdf11461011b575b600080fd5b81801561007d57600080fd5b5061009161008c366004610897565b61013b565b6040516001600160a01b0390911681526020015b60405180910390f35b6100d86040518060400160405280600b81526020016a0b8bd89c9bd85918d85cdd60aa1b81525081565b6040516100a59190610979565b610091737109709ecfa91a80626ff3989d68f67f5b1dd12d81565b6100d8610507565b6100d861011636600461098c565b610523565b81801561012757600080fd5b506100916101363660046109c1565b6106da565b600061014683610523565b925061015182610523565b60408051600180825281830190925291935060009190816020015b606081526020019060019003908161016c579050509050604051806040016040528060038152602001621c1dd960ea1b815250816000815181106101b2576101b2610a06565b6020908102919091010152604051638916046760e01b8152600090737109709ecfa91a80626ff3989d68f67f5b1dd12d906389160467906101f7908590600401610a1c565b6000604051808303816000875af1158015610216573d6000803e3d6000fd5b505050506040513d6000823e601f3d908101601f1916820160405261023e9190810190610ab5565b60408051600580825260c0820190925291925060009190816020015b606081526020019060019003908161025a579050509050604051806040016040528060048152602001630c4c2e6d60e31b815250816000815181106102a1576102a1610a06565b602002602001018190525081856040516020016102bf929190610afe565b604051602081830303815290604052816001815181106102e1576102e1610a06565b6020026020010181905250878160028151811061030057610300610a06565b602090810291909101015260405163348051d760e11b815260048101889052737109709ecfa91a80626ff3989d68f67f5b1dd12d90636900a3ae90602401600060405180830381865afa15801561035b573d6000803e3d6000fd5b505050506040513d6000823e601f3d908101601f191682016040526103839190810190610ab5565b8160038151811061039657610396610a06565b602002602001018190525081866040516020016103b4929190610b2d565b604051602081830303815290604052816004815181106103d6576103d6610a06565b6020908102919091010152604051638916046760e01b8152600090737109709ecfa91a80626ff3989d68f67f5b1dd12d9063891604679061041b908590600401610a1c565b6000604051808303816000875af115801561043a573d6000803e3d6000fd5b505050506040513d6000823e601f3d908101601f191682016040526104629190810190610ab5565b90506104916040518060400160405280600c81526020016b2932ba3ab937102230ba309d60a11b81525061072c565b61049a81610772565b60006104a582610b69565b60601c905080156104bc5794506104ff9350505050565b60405162461bcd60e51b8152602060048201526014602482015273139bc818dbdb9d1c9858dd0819195c1b1bde595960621b604482015260640160405180910390fd5b949350505050565b604051806060016040528060318152602001610c126031913981565b80516060908290600090815b835181101561057e5783818151811061054a5761054a610a06565b6020910101516001600160f81b031916600160fd1b1461056c5780925061057e565b8061057681610bbb565b91505061052f565b5082515b80156105d85783610594600183610bd4565b815181106105a4576105a4610a06565b6020910101516001600160f81b031916600160fd1b146105c6578091506105d8565b806105d081610be7565b915050610582565b508282815181106105eb576105eb610a06565b01602001516001600160f81b031916601760f91b036106125761060f600183610bfe565b91505b600061061e8383610bd4565b67ffffffffffffffff811115610636576106366107d2565b6040519080825280601f01601f191660200182016040528015610660576020820181803683370190505b50905060005b81518110156106d0578461067a8286610bfe565b8151811061068a5761068a610a06565b602001015160f81c60f81b8282815181106106a7576106a7610a06565b60200101906001600160f81b031916908160001a905350806106c881610bbb565b915050610666565b5095945050505050565b600061072383836040518060400160405280600b81526020016a0b8bd89c9bd85918d85cdd60aa1b815250604051806060016040528060318152602001610c126031913961013b565b90505b92915050565b61076f816040516024016107409190610979565b60408051601f198184030181529190526020810180516001600160e01b031663104c13eb60e21b1790526107b1565b50565b61076f816040516024016107869190610979565b60408051601f198184030181529190526020810180516001600160e01b03166305f3bfab60e11b1790525b80516a636f6e736f6c652e6c6f67602083016000808483855afa5050505050565b634e487b7160e01b600052604160045260246000fd5b604051601f8201601f1916810167ffffffffffffffff81118282101715610811576108116107d2565b604052919050565b600067ffffffffffffffff821115610833576108336107d2565b50601f01601f191660200190565b600082601f83011261085257600080fd5b813561086561086082610819565b6107e8565b81815284602083860101111561087a57600080fd5b816020850160208301376000918101602001919091529392505050565b600080600080608085870312156108ad57600080fd5b843567ffffffffffffffff808211156108c557600080fd5b6108d188838901610841565b95506020870135945060408701359150808211156108ee57600080fd5b6108fa88838901610841565b9350606087013591508082111561091057600080fd5b5061091d87828801610841565b91505092959194509250565b60005b8381101561094457818101518382015260200161092c565b50506000910152565b60008151808452610965816020860160208601610929565b601f01601f19169290920160200192915050565b602081526000610723602083018461094d565b60006020828403121561099e57600080fd5b813567ffffffffffffffff8111156109b557600080fd5b6104ff84828501610841565b600080604083850312156109d457600080fd5b823567ffffffffffffffff8111156109eb57600080fd5b6109f785828601610841565b95602094909401359450505050565b634e487b7160e01b600052603260045260246000fd5b6000602080830181845280855180835260408601915060408160051b870101925083870160005b82811015610a7157603f19888603018452610a5f85835161094d565b94509285019290850190600101610a43565b5092979650505050505050565b6000610a8c61086084610819565b9050828152838383011115610aa057600080fd5b610aae836020830184610929565b9392505050565b600060208284031215610ac757600080fd5b815167ffffffffffffffff811115610ade57600080fd5b8201601f81018413610aef57600080fd5b6104ff84825160208401610a7e565b60008351610b10818460208801610929565b835190830190610b24818360208801610929565b01949350505050565b60008351610b3f818460208801610929565b602f60f81b9083019081528351610b5d816001840160208801610929565b01600101949350505050565b805160208201516bffffffffffffffffffffffff198082169291906014831015610b9d5780818460140360031b1b83161693505b505050919050565b634e487b7160e01b600052601160045260246000fd5b600060018201610bcd57610bcd610ba5565b5060010190565b8181038181111561072657610726610ba5565b600081610bf657610bf6610ba5565b506000190190565b8082018082111561072657610726610ba556fe2e2f6c69622f666f756e6472792d6465766f70732f7372632f6765745f726563656e745f6465706c6f796d656e742e7368a2646970667358221220e859cb7d7a9cddd42e090ecdf5f90770a41b56b8e5ac30563d00ead63ed2295564736f6c63430008130033",
        "nonce": "0x55",
        "accessList": []
      },
      "additionalContracts": [],
      "isFixedGasLimit": false
    },
    {
      "hash": "0x85954be8df90eb8ab430b91f3fc5343bb9dcce95172d4ab4b9f43fe6a0e166a9",
      "transactionType": "CREATE",
      "contractName": "Lottery",
      "contractAddress": "0x460da67024A37E51eAbB1D3DEf5Bd6e2821bc44E",
      "function": null,
      "arguments": [
        "10000000000000000",
        "30",
        "0x8103B0A8A00be2DDC778e6e7eaa21791Cd364625",
        "0x474e34a077df58807dbe9c96d3c009b23b3c6d0cce433e59bbf5b34f823bc56c",
        "4914",
        "500000"
      ],
      "transaction": {
        "type": "0x02",
        "from": "0x449dabbfeb5aabc3a9477c02f47933b19250d72a",
        "gas": "0xe749f",
        "value": "0x0",
        "data": "0x6101606040526000805465ffffffffffff19166201000217905534801561002557600080fd5b50604051610ce4380380610ce48339810160408190526100449161009b565b6001600160a01b0393909316608081905260c09590955260a0939093524260025560e093909352610100929092526001600160401b03166101205263ffffffff16610140526003805460ff60a01b19169055610126565b60008060008060008060c087890312156100b457600080fd5b86516020880151604089015191975095506001600160a01b03811681146100da57600080fd5b6060880151608089015191955093506001600160401b03811681146100fe57600080fd5b60a088015190925063ffffffff8116811461011857600080fd5b809150509295509295509295565b60805160a05160c05160e051610100516101205161014051610b4f610195600039600061037e015260006103440152600061031e015260006103c3015260008181610177015261052301526000818161013a015261046c01526000818161020401526102460152610b4f6000f3fe6080604052600436106100865760003560e01c80636f3343b9116100595780636f3343b91461012b57806387bb7ae014610168578063e55ae4e81461019b578063edca914c146101d3578063f88649a1146101db57600080fd5b80631fe543e31461008b5780634585e33b146100ad5780635e6c102e146100cd5780636b68c03c14610104575b600080fd5b34801561009757600080fd5b506100ab6100a6366004610839565b6101f9565b005b3480156100b957600080fd5b506100ab6100c83660046108eb565b610286565b3480156100d957600080fd5b506100ed6100e836600461095d565b610464565b6040516100fb9291906109f2565b60405180910390f35b34801561011057600080fd5b50600354600160a01b900460ff166040516100fb9190610a60565b34801561013757600080fd5b507f00000000000000000000000000000000000000000000000000000000000000005b6040519081526020016100fb565b34801561017457600080fd5b507f000000000000000000000000000000000000000000000000000000000000000061015a565b3480156101a757600080fd5b506101bb6101b6366004610a88565b6104f1565b6040516001600160a01b0390911681526020016100fb565b6100ab610521565b3480156101e757600080fd5b506003546001600160a01b03166101bb565b336001600160a01b037f000000000000000000000000000000000000000000000000000000000000000016146102785760405163073e64fd60e21b81523360048201526001600160a01b037f00000000000000000000000000000000000000000000000000000000000000001660248201526044015b60405180910390fd5b610282828261060d565b5050565b60006102a060405180602001604052806000815250610464565b509050806102f657600180546003544792600160a01b90910460ff16908111156102cc576102cc610a4a565b60405163305afaed60e11b815260048101939093526024830191909152604482015260640161026f565b60038054600160a01b60ff60a01b19909116179055600080546040516305d3b1d360e41b81527f000000000000000000000000000000000000000000000000000000000000000060048201527f000000000000000000000000000000000000000000000000000000000000000067ffffffffffffffff16602482015261ffff821660448201527f000000000000000000000000000000000000000000000000000000000000000063ffffffff90811660648301526201000090920490911660848201526001600160a01b037f00000000000000000000000000000000000000000000000000000000000000001690635d3b1d309060a4016020604051808303816000875af115801561040c573d6000803e3d6000fd5b505050506040513d601f19601f820116820180604052508101906104309190610aa1565b60405190915081907fc61f854181b99793a1978fce7ec084903ee228d7247fa6dcb72d9ece38fda3ad90600090a250505050565b6000606060007f0000000000000000000000000000000000000000000000000000000000000000600254426104999190610aba565b60015491111591501515600080600354600160a01b900460ff1660018111156104c4576104c4610a4a565b1490504715158380156104d45750825b80156104dd5750815b80156104e65750805b955050505050915091565b60006001828154811061050657610506610ae1565b6000918252602090912001546001600160a01b031692915050565b7f0000000000000000000000000000000000000000000000000000000000000000341015610562576040516320c6645f60e01b815260040160405180910390fd5b6001600354600160a01b900460ff16600181111561058257610582610a4a565b036105a05760405163c1a0b79760e01b815260040160405180910390fd5b60018054808201825560009182527fb10e2d527612073b26eecdfd717e6a320cf44b4afac2b0732d9fcbe2b7fa0cf60180546001600160a01b0319163390811790915560405190917ffb861d78b631219ee070d9138f111bb74944dcf1592f26fdfba81ff809a3376c91a2565b60006001805490508260008151811061062857610628610ae1565b602002602001015161063a9190610af7565b905060006001828154811061065157610651610ae1565b6000918252602082200154600380546001600160a01b0319166001600160a01b03909216918217905560405190925082917f288d031009291b88c00d7da291cacacb99fd1496c8a589926ff37883b5a34dc091a26003805460ff60a01b191690554260025560408051600081526020810191829052516106d391600191610778565b506040517fc3ecddf0142797004f4b0268e4699f80026838b03806f236e44206334a8a24d990600090a16000816001600160a01b03164760405160006040518083038185875af1925050503d806000811461074a576040519150601f19603f3d011682016040523d82523d6000602084013e61074f565b606091505b505090508061077157604051633cf3ef0760e11b815260040160405180910390fd5b5050505050565b8280548282559060005260206000209081019282156107cd579160200282015b828111156107cd57825182546001600160a01b0319166001600160a01b03909116178255602090920191600190910190610798565b506107d99291506107dd565b5090565b5b808211156107d957600081556001016107de565b634e487b7160e01b600052604160045260246000fd5b604051601f8201601f1916810167ffffffffffffffff81118282101715610831576108316107f2565b604052919050565b6000806040838503121561084c57600080fd5b8235915060208084013567ffffffffffffffff8082111561086c57600080fd5b818601915086601f83011261088057600080fd5b813581811115610892576108926107f2565b8060051b91506108a3848301610808565b81815291830184019184810190898411156108bd57600080fd5b938501935b838510156108db578435825293850193908501906108c2565b8096505050505050509250929050565b600080602083850312156108fe57600080fd5b823567ffffffffffffffff8082111561091657600080fd5b818501915085601f83011261092a57600080fd5b81358181111561093957600080fd5b86602082850101111561094b57600080fd5b60209290920196919550909350505050565b6000602080838503121561097057600080fd5b823567ffffffffffffffff8082111561098857600080fd5b818501915085601f83011261099c57600080fd5b8135818111156109ae576109ae6107f2565b6109c0601f8201601f19168501610808565b915080825286848285010111156109d657600080fd5b8084840185840137600090820190930192909252509392505050565b821515815260006020604081840152835180604085015260005b81811015610a2857858101830151858201606001528201610a0c565b506000606082860101526060601f19601f830116850101925050509392505050565b634e487b7160e01b600052602160045260246000fd5b6020810160028310610a8257634e487b7160e01b600052602160045260246000fd5b91905290565b600060208284031215610a9a57600080fd5b5035919050565b600060208284031215610ab357600080fd5b5051919050565b81810381811115610adb57634e487b7160e01b600052601160045260246000fd5b92915050565b634e487b7160e01b600052603260045260246000fd5b600082610b1457634e487b7160e01b600052601260045260246000fd5b50069056fea26469706673582212206730f79d44ccc17b5f916f874039771f9592eeaa5a2628c93ce3654a92ac2ff564736f6c63430008130033000000000000000000000000000000000000000000000000002386f26fc10000000000000000000000000000000000000000000000000000000000000000001e0000000000000000000000008103b0a8a00be2ddc778e6e7eaa21791cd364625474e34a077df58807dbe9c96d3c009b23b3c6d0cce433e59bbf5b34f823bc56c0000000000000000000000000000000000000000000000000000000000001332000000000000000000000000000000000000000000000000000000000007a120",
        "nonce": "0x56",
        "accessList": []
      },
      "additionalContracts": [],
      "isFixedGasLimit": false
    },
    {
      "hash": "0xd9810fab4a2bf359cd797aee9c59d143e5e2b11d0279a49c07fc3bf2f6533b7b",
      "transactionType": "CALL",
      "contractName": "VRFCoordinatorV2",
      "contractAddress": "0x8103B0A8A00be2DDC778e6e7eaa21791Cd364625",
      "function": "addConsumer(uint64,address)",
      "arguments": [
        "4914",
        "0x460da67024A37E51eAbB1D3DEf5Bd6e2821bc44E"
      ],
      "transaction": {
        "type": "0x02",
        "from": "0x449dabbfeb5aabc3a9477c02f47933b19250d72a",
        "to": "0x8103b0a8a00be2ddc778e6e7eaa21791cd364625",
        "gas": "0x21eb0",
        "value": "0x0",
        "data": "0x7341c10c0000000000000000000000000000000000000000000000000000000000001332000000000000000000000000460da67024a37e51eabb1d3def5bd6e2821bc44e",
        "nonce": "0x57",
        "accessList": []
      },
      "additionalContracts": [],
      "isFixedGasLimit": false
    }
  ],
  "receipts": [
    {
      "transactionHash": "0x1de53f17305a0707283f4b5d121be12fc958a3100aba6f69e1c0d527ebc1f5fe",
      "transactionIndex": "0x2",
      "blockHash": "0x8e6d62488739ceaaf35b87e85e8837c33f23f419bf709d25499fecf3cfb5b98f",
      "blockNumber": "0x418045",
      "from": "0x449daBbFEB5aaBc3a9477C02F47933B19250d72a",
      "to": null,
      "cumulativeGasUsed": "0x17b48e",
      "gasUsed": "0xb55da",
      "contractAddress": "0x3a0c591fa9d063c71C68223196CB4f70264B5744",
      "logs": [],
      "status": "0x1",
      "logsBloom": "0x00000000000000000000000000000000000000000000000000000000000000000000000000000000000000000000000000000000000000000000000000000000000000000000000000000000000000000000000000000000000000000000000000000000000000000000000000000000000000000000000000000000000000000000000000000000000000000000000000000000000000000000000000000000000000000000000000000000000000000000000000000000000000000000000000000000000000000000000000000000000000000000000000000000000000000000000000000000000000000000000000000000000000000000000000000000",
      "type": "0x2",
      "effectiveGasPrice": "0xb2d07f10"
    },
    {
      "transactionHash": "0x85954be8df90eb8ab430b91f3fc5343bb9dcce95172d4ab4b9f43fe6a0e166a9",
      "transactionIndex": "0x3",
      "blockHash": "0x8e6d62488739ceaaf35b87e85e8837c33f23f419bf709d25499fecf3cfb5b98f",
      "blockNumber": "0x418045",
      "from": "0x449daBbFEB5aaBc3a9477C02F47933B19250d72a",
      "to": null,
      "cumulativeGasUsed": "0x22d40c",
      "gasUsed": "0xb1f7e",
      "contractAddress": "0x460da67024A37E51eAbB1D3DEf5Bd6e2821bc44E",
      "logs": [],
      "status": "0x1",
      "logsBloom": "0x00000000000000000000000000000000000000000000000000000000000000000000000000000000000000000000000000000000000000000000000000000000000000000000000000000000000000000000000000000000000000000000000000000000000000000000000000000000000000000000000000000000000000000000000000000000000000000000000000000000000000000000000000000000000000000000000000000000000000000000000000000000000000000000000000000000000000000000000000000000000000000000000000000000000000000000000000000000000000000000000000000000000000000000000000000000",
      "type": "0x2",
      "effectiveGasPrice": "0xb2d07f10"
    },
    {
      "transactionHash": "0xd9810fab4a2bf359cd797aee9c59d143e5e2b11d0279a49c07fc3bf2f6533b7b",
      "transactionIndex": "0x4",
      "blockHash": "0x8e6d62488739ceaaf35b87e85e8837c33f23f419bf709d25499fecf3cfb5b98f",
      "blockNumber": "0x418045",
      "from": "0x449daBbFEB5aaBc3a9477C02F47933B19250d72a",
      "to": "0x8103B0A8A00be2DDC778e6e7eaa21791Cd364625",
      "cumulativeGasUsed": "0x24471e",
      "gasUsed": "0x17312",
      "contractAddress": null,
      "logs": [
        {
          "address": "0x8103B0A8A00be2DDC778e6e7eaa21791Cd364625",
          "topics": [
            "0x43dc749a04ac8fb825cbd514f7c0e13f13bc6f2ee66043b76629d51776cff8e0",
            "0x0000000000000000000000000000000000000000000000000000000000001332"
          ],
          "data": "0x000000000000000000000000460da67024a37e51eabb1d3def5bd6e2821bc44e",
          "blockHash": "0x8e6d62488739ceaaf35b87e85e8837c33f23f419bf709d25499fecf3cfb5b98f",
          "blockNumber": "0x418045",
          "transactionHash": "0xd9810fab4a2bf359cd797aee9c59d143e5e2b11d0279a49c07fc3bf2f6533b7b",
          "transactionIndex": "0x4",
          "logIndex": "0x5",
          "removed": false
        }
      ],
      "status": "0x1",
      "logsBloom": "0x0000000000000000000000000000000000000000000000000000000000000000000000000000000000000200000000000000000000000000000000000000000000000000000000000000000004000000000000000000000000000000000000000000000000008000000000000000000000000000000000000000000000000000000000000c000020000000000000000000000000000000000000000000000000000000000000000000000080000000000000000000000000000000000000000000000000000000000000000000000000000000000400000000020000000000000000000000000000000000000000000000000000000000000000000000000000",
      "type": "0x2",
      "effectiveGasPrice": "0xb2d07f10"
    }
  ],
  "libraries": [
    "lib/foundry-devops/src/DevOpsTools.sol:DevOpsTools:0x3a0c591fa9d063c71c68223196cb4f70264b5744"
  ],
  "pending": [],
  "returns": {
    "0": {
      "internal_type": "contract Lottery",
      "value": "0x460da67024A37E51eAbB1D3DEf5Bd6e2821bc44E"
    },
    "1": {
      "internal_type": "contract HelperConfig",
      "value": "0xC7f2Cf4845C6db0e1a1e91ED41Bcd0FcC1b0E141"
    }
  },
  "timestamp": 1694770722,
  "chain": 11155111,
  "multi": false,
  "commit": "a389388"
}